S00B00005450432E7372656332
S113000010C028C027C026C025C024C023C022C0D9
S11300108DC020C01FC01EC01DC01CC01BC0E1C0BD
S1130020FBC011241FBECFEDCDBF10E0A0E6B0E0B1
S1130030EEEBF5E002C005900D92A036B107D9F7BA
S113004010E0A0E6B0E001C01D92A936B107E1F7C7
S11300506BD1B3C2D5CF362F95E896B987B9369A06
S11300603699FECF80E090E0DC0120E00CC0369AA7
S11300703699FECF44B155B160E070E0840F951F0E
S1130080A61FB71F2F5F231791F7379830E040E082
S113009050E0BC01CD016FD2C901089507C0E7E863
S11300A0F3E13197F1F700C0000001970097B9F729
S11300B008958AB383608ABB8BB389608BBBD9985C
S11300C082E06AE0C8DFBC016059714080E090E0E2
S11300D059D126EF3EE440E85EE3BAD127D1862F1A
S11300E00895D19A8BB386608BBBD89883E06AE07D
S11300F0B2DFBC01675D704080E090E043D128E04E
S113010034E345E85EE3A4D111D1862F08958CE051
S11301105BD082E08EBD81E08CB98FEA8DBD8FEF1C
S11301208CBD88EE93E0BADF789408951F920F9205
S11301300FB60F9211242F933F934F935F936F93B6
S11301407F938F939F93AF93BF93CF93EF93FF933B
S11301501CB88FEA8DBD8FEF8CBDC3DFC0EAC81B0E
S1130160A8DF98E6981B809161008C1721F0C0935A
S1130170610081E001C080E020916000291719F03E
S11301809093600081E0909161009093630090915E
S1130190600090936400813019F4D79ADF98DF9A55
S11301A081E08CB9FF91EF91CF91BF91AF919F9175
S11301B08F917F916F915F914F913F912F910F900C
S11301C00FBE0F901F901895809367008AB38065C7
S11301D08ABBDC9ADE9AD69888EA8DB980EF8EB90C
S11301E008951F920F920FB60F9211248F931092BD
S11301F06800D698CC9B02C0CE9BFCCFCE9902C09F
S113020088EF01C088EA8DB980EF8EB98F910F9085
S11302100FBE0F901F9018951F920F920FB60F925A
S113022011242F933F938F939F93EF93FF93809188
S11302306800823009F445C0833030F4882369F0C3
S1130240813009F066C026C0843009F440C084308F
S1130250D8F0853009F05DC040C08FB1882349F0E3
S11302608FB12091670090E08E7F30E08217930772
S113027071F4789B02C081E046C084E080936800FA
S11302808FEF8093620041C08FB1882319F088EA10
S11302908DB921C0809162008F3F11F410926200E9
S11302A0E0916200F0E0ED59FF4F80818FB98091B9
S11302B062008F5F8093620082E080936800D69A28
S11302C00AC083E0809368001FB8D69820C085E0F8
S11302D080936800D69880E71BC08FB1909162002C
S11302E09F3F29F4833060F0109262000BC0E091CC
S11302F06200F0E0EB59FF4F8083809162008F5FD2
S11303008093620084E0809368001FB8D69A8EE7D9
S11303108EB9FF91EF919F918F913F912F910F9003
S11303200FBE0F901F901895F2DEFFCF70D088F0AB
S11303309F5790F0B92F9927B751A0F0D1F0660FCD
S1130340771F881F991F1AF0BA95C9F712C0B130E8
S113035081F077D0B1E0089574C0672F782F882793
S1130360B85F39F0B93FCCF3869577956795B39527
S1130370D9F73EF490958095709561957F4F8F4F96
S11303809F4F0895E89409C097FB3EF4909580959B
S1130390709561957F4F8F4F9F4F9923A9F0F92F47
S11303A096E9BB279395F695879577956795B795C5
S11303B0F111F8CFFAF4BB0F11F460FF1BC06F5FAB
S11303C07F4F8F4F9F4F16C0882311F096E911C0BD
S11303D0772321F09EE8872F762F05C0662371F0DE
S11303E096E8862F70E060E02AF09A95660F771FF2
S11303F0881FDAF7880F9695879597F9089557FD22
S11304009058440F551F59F05F3F71F04795880F7E
S113041097FB991F61F09F3F79F087950895121615
S113042013061406551FF2CF4695F1DF08C01616C1
S113043017061806991FF1CF869571056105089472
S11304400895E894BB2766277727CB0197F9089589
S11304500AD080C071D028F076D018F0952309F026
S113046062C067C0EFCFCBDFA8F39923D9F355233C
S1130470C9F3950F50E0551FAA27EE27FF27BB2786
S113048000240894679520F4E20FF31FB41F0A1E9A
S1130490220F331F441FAA1F6695A9F7779530F4DE
S11304A0F30FB41F0A1E121E08F46395330F441F82
S11304B0AA1F221F769599F7879520F4B40F0A1E78
S11304C0121E631F440FAA1F221F331F8695A9F70C
S11304D0862F712D602D11249F5750408AF0E1F032
S11304E088234AF0EE0FFF1FBB1F661F771F881F6C
S11304F091505040A9F79E3F510570F014C0A2CF0F
S11305005F3FECF3983EDCF3869577956795B79556
S1130510F795E7959F5FC1F7FE2B880F911D969580
S1130520879597F9089597F99F6780E870E060E0F0
S113053008959FEF80EC089500240A941616170678
S113054018060906089500240A94121613061406C0
S113055005060895092E0394000C11F4882352F023
S1130560BB0F40F4BF2B11F460FF04C06F5F7F4FDB
S11305708F4F9F4F0895A1E21A2EAA1BBB1BFD01AA
S11305800DC0AA1FBB1FEE1FFF1FA217B307E4076E
S1130590F50720F0A21BB30BE40BF50B661F771FC6
S11305A0881F991F1A9469F76095709580959095A6
S11105B09B01AC01BD01CF010895F894FFCF6B
S9030000FC
