:100000007FC200009BC2000099C200000C945509F9
:1000100095C2000093C2000091C200008FC2000090
:100020008DC200008BC2000089C2000087C20000A0
:1000300085C2000083C2000081C2000055C70000D5
:100040007DC200007BC2000079C2000077C20000C0
:1000500075C2000073C2000071C200006FC20000D0
:100060006DC200006BC2000069C2000067C20000E0
:1000700065C2000063C2000061C200005FC20000F0
:100080005DC200005BC200000C9416090000000075
:1000900000000000000000000000FC040000000060
:1000A000CF8000000000000000000018FC08FC6881
:1000B0000030F9BABF30000CFFAE6E0C0020DCCF70
:1000C000CC08000C0CFC0E0700B8CCEC20000003A0
:1000D00023EFDF770000E03030000028EEDEF88C00
:1000E0000000000000000000FC1800000000E41BFD
:1000F000000000001BE4000000001BE40000000002
:10010000E41B00000000000000000028F0BFF02801
:100110000000FC0000000303FF03030200000000D6
:1001200000000000F82C00000000000000000000AB
:1001300000C0C0C00000000000000000000000007F
:10014000000000E02E0200E02E02000000A02C0CB7
:100150002CE0002BE5C0D02F00202CFC00000080FC
:10016000C0FFC0C000301C0CAC2000E0F8CDC3C004
:100170000020380CACA00030D1C3DB7C0000C0787C
:10018000FC00000E0ECCFFCC0054AC0C0C04003173
:10019000E3C3C37E0040B02C0C0C000ABFC3C3EE07
:1001A000003C0C0C9C68000000E41B0000A06C0CE0
:1001B0006CA00068C7C3C76800A0AC0C1CF000802E
:1001C000C3C3E32F000080C08000000080C0800017
:1001D0000000203020000000F82C04000000000087
:1001E00080C0080C2EB3C3C000000000000088CC03
:1001F000CCCCCCCCC08000000000C0C3B32E0C0817
:1002000000202C0C2CF0000040CC8B0100F81FE3E8
:1002100077F8002FF4CFCD4F000CEC3CE000C0F895
:10022000CF0CCEF908AC5C0C0CF880EAD7C3C3ED58
:10023000B02C0C1C38283ED0C0C0B020ACAC0C0C8C
:10024000B880EAEAC0C0B90A08AC5C8C4C3C80EAD1
:10025000D7CBC5F00CFC0CCC1C3CC0FFC3CF0000BE
:10026000F01C0C1C38147AC0C8CCBC1C08AC5C0058
:100270000CFC80EAD703C3FF000C0CFC0C0C00C084
:10028000C0FFC0C000080CACAC0C7CC0C0FA2A0097
:1002900008AC5C88D83C40EADF8B2CE00CFC0C08F6
:1002A0000000C0FFC0C0E8A85CFCE000E0FCD5FF97
:1002B000C20FC1FF08FCB4800CFC80FFC00B78FFAC
:1002C00040B02C0C1CB4063AE0C0D07A0CFC0C0CEC
:1002D000B890C0FFCC8C0E0190AC0B03039D010EB7
:1002E000F4F0F0DE08AC5C0C2CF040EADD8C2EF271
:1002F00000A0AC0C1C3C00F0C3C3C3BD002C0CFC24
:100300000C3C0080C0FFC08008FC0C080CFC003FC7
:10031000E0C0C07F0CBC0C000CFC00016EE0BE0213
:100320001CEC4CC04CFC00FFFA0BBEAF083CD840A4
:10033000EC2C80F0ED07ECE0082CEC40D83C0040C1
:10034000C0FFC28000281C4CEC2C00E0ECC7C0F0C1
:100350000000FF0302000000FFC08000000BB88017
:1003600000000000000BB880000003FF0000000048
:10037000C0FF00000000000000000080E030E080CE
:10038000000000000000000000000000000000006D
:100390000000000020E080000040C0C0C00000B9A4
:1003A000CDCCEEEA08FC80C0C08080FFE3C0C0BBBB
:1003B0000000C0C0C080003FD1C0C1C340C0C0CC9D
:1003C000FC007BC0C0E2FFC00040C0C0C00000BF56
:1003D000CCCCCDCFC0E0ECCCCC08C0EAEAC0C000A9
:1003E000B40C0C3CFC0807CCCCEE3F0008ACD4C0ED
:1003F000C08080EAD700C0FF0080C0CC000000C0F1
:10040000C0FFC0C0000C0C0CFC0000C0C0C0BF008E
:10041000000CFC40C0C000C0FFAEF3C000080CFCE4
:10042000000000C0C0FFC0C0C0C0C0C0C0C0C0FF8E
:10043000C1AAD65580C0C0C0C08040EAD700C0FF66
:100440000000C0C0C04000BFC1C0C0BB08FC380C29
:100450000CB880FFCE8C0C0BB40C0C2CFC0C070CD5
:100460004CCEFFC000C0C080C0C000C0EAD7C08072
:100470000000C0C0C0C000C6CDCCCDBA00C0F0C026
:10048000C0800000FFC0C0B080C04040C0C0006A53
:10049000D5C0E0FF80C0C000C0C000026EC0B80779
:1004A000C0C0800080C000AFE42CB86F00C0C000A6
:1004B000C0C080D0FB0CFBE10CEC0448BC0CC0C1FC
:1004C000FECB00000080C0C0C0C000C2F1ECCBF188
:1004D0000000C0BF0000000000BFC000000000001E
:1004E00000000000000000FF000000BFC00000008E
:1004F000C0BF000000000000000000E030E0C0B01D
:1005000011241FBECFEFD0E4DEBFCDBF11E0A0E0CD
:10051000B1E0E8E1FEE100E00BBF02C007900D9200
:10052000AA3EB107D9F724E1AAEEB1E001C01D92BD
:10053000A433B207E1F78DD00C940A0F61CD10926D
:10054000B90081E18093B800089524EA34E844E9D1
:100550002093BC009091BC0097FFFCCF9091B90014
:10056000987F983011F0903199F78093BB003093C9
:10057000BC009091BC0097FFFCCF9091B900987F90
:10058000903211F0983539F44093BC009091BC0042
:1005900094FDFCCFDDCF089584E98093BC00809169
:1005A000BC0084FDFCCF08958093BB0084E8809359
:1005B000BC008091BC0087FFFCCF9091B900987F70
:1005C00081E0983209F480E0089584EC8093BC00C7
:1005D0008091BC0087FFFCCF8091BB00089584E828
:1005E0008093BC008091BC0087FFFCCF8091BB0052
:1005F0000895A1E8B0E082E08C9381E080936F00E1
:1006000096EF909385009BE39093840095E0909300
:10061000910020E12093690024E02DBB2CBB2BE24C
:1006200024BD95BDE0910001F0E0EE0FFF1FEF5FEC
:10063000FE4F908198BD8AB9B093C500A093C400C5
:1006400088E18093C10086E08093C20078DF7894CF
:100650000895CFDF81D13DD585E491E0BDD188E516
:1006600091E0BAD19ED580E090E00895E3E1F4E115
:100670008EEE91E031E03193DC0120EA1C922150B2
:100680005A962111FBCF019624E1ED32F20799F73A
:100690000895262F2695269530E06370660F01C0D9
:1006A000440F6A95EAF7F9019AE1899FE00DF11D7F
:1006B0001124E251FE4F8081482B4083F901ED5E09
:1006C000FB4E81E0808308952F923F924F925F927C
:1006D0006F927F928F929F92AF92BF92CF92DF9252
:1006E000EF92FF920F931F93CF93DF9300D000D030
:1006F0001F92CDB7DEB70B83E82FF0E0FD83EC83CC
:1007000050E04E1B5F0B062F10E030E0201B310B3A
:100710001416150664F0E1E0F0E04115510511F4FE
:10072000E0E0F0E0662477246E1A7F0A03C06624B6
:100730006394712C1216130664F0E1E0F0E02115C9
:10074000310511F4E0E0F0E0EE24FF24EE1AFF0A98
:1007500003C0EE24E394F12C57FF03C0519541955B
:1007600051095A0137FF03C03195219531092901FB
:100770002417350734F02A01590117011A8219820A
:1007800004C07A826982212C312C6501D594C794EA
:100790004B817FDF812C912C8A149B0409F1C418B2
:1007A000D508D7FE0BC0CA0CDB1C2C813D81260D61
:1007B000371D3D832C830E0D1F1D0AC08C819D812A
:1007C000E981FA818E0F9F1F9D838C83020D131D7B
:1007D0004B81602F8C815DDFFFEF8F1A9F0ADCCF8A
:1007E0000F900F900F900F900F90DF91CF911F916E
:1007F0000F91FF90EF90DF90CF90BF90AF909F90C0
:100800008F907F906F905F904F903F902F900895C2
:10081000EF92FF920F931F93CF93DF93F82E162F33
:10082000D22FC82FC40F262F4C2F4EDFD10F2D2FC4
:100830004C2F6D2F8F2D48DF2D2F4F2D612F8F2D9A
:1008400043DF2D2F4C2F612F8C2F3EDFDF91CF9177
:100850001F910F91FF90EF9008953F924F925F92FA
:100860006F927F928F929F92AF92BF92CF92DF92C0
:10087000EF92FF920F931F93CF93DF93FC010190B0
:100880000020E9F731973E2E381A582EDC0150E04F
:10089000CA018D5E9B4E3C0171E07A019FEFE91A1F
:1008A000F90AF701ED5EFB4E4F018A2F851983157A
:1008B00008F040C08D919FED980F9F3510F0695F53
:1008C000F4CF8052F3017083F4017083FCE08F9FBA
:1008D000C00111242AE1629F800111245A01A00E57
:1008E000B11E0E0D1F1DC0E0D0E020E030E06C0115
:1008F000E6E0CE0ED11CF901E80FF91FE457FF4FD7
:100900004490FE01EA0DFB1DE251FE4F4082F601CC
:10091000E20FF31FE457FF4F4490FE01E00FF11F79
:10092000E251FE4F40822F5F3F4F6A9626303105DD
:1009300011F7C5CFDF91CF911F910F91FF90EF90ED
:10094000DF90CF90BF90AF909F908F907F906F90EF
:100950005F904F903F9008951092ED0144EF52E167
:100960002DE080E090E0FA01E80FF91F1082019677
:1009700086319105C1F721504A5E5F4F2111F1CFB9
:100980001092EC0110922D140ED33DD36FCE81E066
:100990008093ED0180936F0008958091ED018111A6
:1009A0001AC044EF52E12DE080E090E0FA01E80F38
:1009B000F91F1082019686319105C1F721504A5ED8
:1009C0005F4F2111F1CF1092EC0110922D14F89489
:1009D0004DDE2CD378940895DF92EF92FF920F931F
:1009E0001F93CF93DF93DC01D090ED01D1106BC04A
:1009F0009C9141E011E056E1992309F453C0E09144
:100A00002D149A3021F02091EC012631C9F5109275
:100A1000EC0181E08E0F8D3019F080932D143CC0D5
:100A200064EF72E1FCE09B0186E1E9010E89099324
:100A30009E018150D1F7F1506A5E7F4FF111F3CFE3
:100A4000D6E1ED9F7001112420E030E0F0E0B70125
:100A5000620F731F6C507D4EEB0118822F5F3F4F6A
:100A600026313105A1F79A30B9F01093EC015E9F61
:100A700090015F9F300D1124F901EC50FD4E0BC029
:100A800081E0820F8093EC015E9FF0011124EC5015
:100A9000FD4EE20FF11D9083FD01E40FF11D9081E9
:100AA0004F5FAACFE3DD04EF12E14D2D60E0C801F6
:100AB000D4DE0A5E1F4FD394D394DAE1DD12F5CF72
:100AC000F894B4D27894DF91CF911F910F91FF9059
:100AD000EF90DF9008950F931F93CF93DF93CDB7DF
:100AE000DEB72A970FB6F894DEBF0FBECDBF1F92B8
:100AF0008F9389E691E09F938F938E010F5F1F4F35
:100B00001F930F93ACD6C80167DF0F900F900F9023
:100B10000F900F900F902A960FB6F894DEBF0FBE7D
:100B2000CDBFDF91CF911F910F9108955F926F928A
:100B30007F928F929F92AF92BF92CF92DF92EF926D
:100B4000FF920F931F93CF93DF93592F9091ED0155
:100B5000913009F0ADC0152FC82FA52FA695A695E9
:100B6000B0E0252F2370E22EF12CC701880F991FCA
:100B7000E3E0F0E06F0102C0CC0CDD1C8A95E2F7E7
:100B8000CD013AE1C39F800D911D112482519E4FEA
:100B9000FC01808190E08C219D2102C09595879574
:100BA0002A95E2F74AE1C13AB8F491E09C0F9D0121
:100BB0004C9F200D311D1124E901C251DE4F2881C7
:100BC00030E02C213D210E2C02C0359527950A944A
:100BD000E2F7C92F821739F3062F652FC150402F36
:100BE0008C2F57DDA12CB12CDFEF812C712C2AE743
:100BF000622E34E4532E912CF501C190D190E190F6
:100C0000F1905F01282D372D462D552DC701B601D6
:100C100079D487FF05C0D92D8C2C7D2C6E2C5F2CB0
:100C20009394F8E09F12E8CFD11102C0CF5F19C0B2
:100C3000D13011F4CF5F05C0D23019F0D33019F4A0
:100C4000C1501F5F0EC0D43011F4C1500AC0D5305E
:100C500011F4C15005C0D63019F0D73011F4CF5F70
:100C60001150402F612F8C2F14DDA12CB12CDFEF00
:100C7000812C712C8AE7682E94E4592E912CF50171
:100C8000C190D190E190F1905F01282D372D462D34
:100C9000552DC701B60136D487FF05C0D92D8C2C40
:100CA0007D2C6E2C5F2C9394F8E09F12E8CFBCCF84
:100CB000DF91CF911F910F91FF90EF90DF90CF9038
:100CC000BF90AF909F908F907F906F905F900895AE
:100CD0008091ED01813009F4C9CC0895AF92BF92A3
:100CE000CF92DF92EF92FF920F931F93CF93DF93F8
:100CF0002091ED01213009F05BC0142FC62FF92E91
:100D0000082FE22EE61AD62ED194DD0C692F6C0F37
:100D1000C0DC6F2D6C1B412F802FBBDC412F6F2D52
:100D2000802F8C0FB6DC412F6F2D802F8C1BB1DCF8
:100D3000D0E0DC170CF03CC0E7FC04C0C150D394F9
:100D4000D394ED0CDF5F8D2F880F8F5FE80EA02E00
:100D5000AD0E412FCF2CCC0E6C2D8A2D9ADCB02EEF
:100D6000BD1A412F6C2D8B2D94DC412FCF2CCC1A2A
:100D70006C2D8A2D8EDC412F6C2D8B2D8ADCCF2C97
:100D8000CD0E412F6C2DB02EBC0E8B2D82DC412F51
:100D90006C2DC02ECC1A8C2D7CDCAF2CAD1A412FC3
:100DA0006A2D8B2D76DC412F6A2D8C2D72DCC1CF04
:100DB000DF91CF911F910F91FF90EF90DF90CF9037
:100DC000BF90AF9008950F932091ED01213029F449
:100DD000042F272F462F692F1BDD0F9108957F9237
:100DE0008F929F92AF92BF92CF92DF92EF92FF923B
:100DF0000F931F93CF93DF937C01162FD42FD22E06
:100E0000C1E0C60F6C2F29DDF70101900020E9F742
:100E1000AF014E195F09DD0FDD0F4250504E440FF8
:100E2000440F440F6FEF6D0F03E02AE0812FF0DCD9
:100E3000DD2009F44BC0F70101900020E9F731975C
:100E4000EE19FF09EE0FEE0FEE0F882483948D0E3E
:100E5000C12CD12C0E2F10E08CE0782E7D0E9AE163
:100E6000992E23E0A22EB12CC016D1067CF5D82DE8
:100E70009C9EC00111249C0122513E4F79018D2F6F
:100E800086958695F701E80FF11D808190E04D2F42
:100E90004370242F220FB50102C0660F771F2A95D9
:100EA000E2F78623972302C0959587954A95E2F746
:100EB00041E0811140E06D2F8C2FEBDBDF5F7D1275
:100EC000DECF7FEFC71AD70ACF5FCECFDF91CF91AA
:100ED0001F910F91FF90EF90DF90CF90BF90AF9058
:100EE0009F908F907F9008951F920F920FB60F9250
:100EF00011240BB60F922F933F934F935F936F93F1
:100F00007F938F939F93AF93BF93EF93FF93F89447
:100F10008DD07894FF91EF91BF91AF919F918F9178
:100F20007F916F915F914F913F912F910F900BBEE9
:100F30000F900FBE0F901F901895362F242F492F1A
:100F4000682F832F972F4BCF292F481728F1FB01AC
:100F500001900020E9F73197E61BF70B642F70E052
:100F600093E0EE0FFF1F9A95E1F790E002968E0F47
:100F70009F1F8617970780F0452F50E034E0239F8E
:100F8000C0011124481759073CF09C01245F3F4FD2
:100F900081E0241735070CF480E008958EBD0DB470
:100FA00007FEFDCF089583E181B980EB84B980E528
:100FB0008CBD81E08DBD12B881EFF0DF87E6EEDFFA
:100FC00080ECECDF80E4EADF80E5E8DF8BE2E6DF5F
:100FD0008BEEE4DF81E8E2DF89E6E0DF89E8DEDF4F
:100FE0008FEADCDF84EADACFCF93C82F12B88F7094
:100FF000D5DF8C2F82958F708061CF91CFCF12B8C3
:101000008F718066CBCFCF93DF9380E0EDDF80E000
:10101000F6DF82E082B9D8ECC0E280E0BFDFC150E9
:10102000E1F7D150C9F7DF91CF910895BF92CF92E8
:10103000DF92EF92FF920F931F93CF93DF9380E0A5
:10104000D3DF80E0DCDF82E082B903E114E18EEEE1
:10105000E82E81E0F82EC1E092E0B92EF8018081FF
:10106000813071F46701D0EAF601808197DFD150B9
:10107000FAE1CF0ED11CD111F7CFF801108204C0D4
:1010800012B88C2FBCDFB2B8CF5F0F5F1F4FFFEFDE
:10109000EF1AFF0ACB3111F7DF91CF911F910F911A
:1010A000FF90EF90DF90CF90BF900895CF93DF93A4
:1010B0008CE04BDA80E078DA6FDA8DE046DA85DAB8
:1010C000D82F8DDAC82F68DA8D2F9C2FDF91CF9122
:1010D00008951092D21285E08093F112E9EDF2E1C9
:1010E0008CE691E09183808381E19AE0938382830F
:1010F0008DE791E0958384838CEF99E097838683D5
:1011000089E891E09187808782E999E093878287D7
:1011100084E991E09587848788EE99E097878687B0
:101120008DE991E0918B808B8CE29AE0938B828B9E
:101130008DEA91E0958B848B8FE899E0978B868B75
:101140000895EF92FF920F931F93CF937C0183EB4F
:1011500091E042DCC70140DC88ED91E03DDCC0E07D
:101160008091F112C817B8F484E0C89F800111245F
:1011700007521D4ED8016D917C91C701ABD18823D8
:1011800041F0D8011296ED91FC9113970995809347
:10119000D212CF5FE5CFCF911F910F91FF90EF90CB
:1011A00008958CE691E09093D1128093D0128091B3
:1011B000F11291DC8AEB91E00FDC8091D0129091DA
:1011C000D112009709F0BDDFFFCF682F70E080E0FB
:1011D00090E030D220E030E04AE754E497D120E8B4
:1011E00036E948E956E4D8D2F9D160957095709304
:1011F0002F1260932E1280912E1290912F128093B5
:10120000940080912E1290912F1290939500089542
:1012100081E08093710008959093F3128093F2120D
:1012200008959093D4128093D31208951F920F9231
:101230000FB60F9211240BB60F922F933F934F933B
:101240005F936F937F938F939F93AF93BF93EF932E
:10125000FF93F89480912E1290912F128093940016
:1012600080912E1290912F12909395008091F212FE
:101270009091F312892B29F0E091F212F091F31280
:1012800009957894FF91EF91BF91AF919F918F91C4
:101290007F916F915F914F913F912F910F900BBE76
:1012A0000F900FBE0F901F9018951F920F920FB6C0
:1012B0000F9211240BB60F922F933F934F935F938E
:1012C0006F937F938F939F93AF93BF93EF93FF930E
:1012D000F89486EF809385008BE380938400E6DEAC
:1012E0002091D3123091D412232B29F0E091D31204
:1012F000F091D41209957894FF91EF91BF91AF913D
:101300009F918F917F916F915F914F913F912F911D
:101310000F900BBE0F900FBE0F901F9018953DDBE6
:1013200080E0089584E180932E1480912E14882308
:1013300069F0D1DB88ED91E04FDB80912E14815074
:1013400080932E1488EE93E0BAD0EFCF0895909159
:10135000301480913314890F80933014823311F448
:101360008FEF03C0811103C081E080933314B0DCA0
:1013700043E0609130148091311490913214AEDCCE
:1013800043E064E174E180E090E01DDD60E08BE02B
:101390009BE0CCDB43E064E174E184E190E013DDA9
:1013A00061E08FE19BE0C2DB43E064E174E188E24D
:1013B00090E009DD62E083E39BE0B8DB43E064E1B9
:1013C00074E18CE390E0FFDC63E087E49BE0AECB6C
:1013D000DEDAE1E3F4E180E5808384E3818381E088
:1013E000809333148093301486E9EFDE87EA99E026
:1013F00013DF0EDF80E008958CEC91E0EDDA80E001
:101400000895AC016091D5127091D6128091D712D7
:101410009091D81299DD882319F08DE991E0C1CE21
:101420000895CF92DF92EF92FF92C0904101D09049
:101430004201E0904301F090440181E09AE0F1DE46
:10144000A6DA46DC40E0C701B60177DD80E0FF9018
:10145000EF90DF90CF900895CF93DF93CDB7DEB7B5
:1014600066970FB6F894DEBF0FBECDBF96DA8E0139
:10147000095E1F4FFE01319611920E171F07E1F70B
:1014800080E09091C00097FFFCCF9091C6009A3009
:1014900069F4CE010196A0DA88ED91E09DDAFE01B3
:1014A00031961192E017F107E1F7EACFE1E0F0E0C1
:1014B000EC0FFD1FE80FF11D90838F5FE2CF0097C7
:1014C00041F0E7E8F3E13197F1F700C00000019740
:1014D000F6CF0895AC0120E0E22FF0E0DA01AE0F84
:1014E000BF1F9C91E60FF71F992339F030813323FA
:1014F00021F0931305C02F5FEFCF81E020812913E6
:1015000080E00895D4D008F481E008950CD00AC199
:1015100002D140F0F9D030F021F45F3F19F0EBC078
:10152000511134C1EEC00FD198F39923C9F355235B
:10153000B1F3951B550BBB27AA27621773078407C6
:1015400038F09F5F5F4F220F331F441FAA1FA9F37C
:1015500033D00E2E3AF0E0E830D091505040E6956E
:10156000001CCAF729D0FE2F27D0660F771F881FCF
:10157000BB1F261737074807AB07B0E809F0BB0BBE
:10158000802DBF01FF2793585F4F2AF09E3F5105E2
:1015900068F0B1C0FBC05F3FECF3983EDCF386958A
:1015A00077956795B795F7959F5FC9F7880F911D58
:1015B0009695879597F90895E1E0660F771F881F44
:1015C000BB1F621773078407BA0720F0621B730BF7
:1015D000840BBA0BEE1F88F7E0950895BCD088F015
:1015E0009F5790F0B92F9927B751A0F0D1F0660F0F
:1015F000771F881F991F1AF0BA95C9F712C0B1302A
:1016000081F0C3D0B1E00895C0C0672F782F88273C
:10161000B85F39F0B93FCCF3869577956795B39568
:10162000D9F73EF490958095709561957F4F8F4FD7
:101630009F4F0895E89409C097FB3EF490958095DC
:10164000709561957F4F8F4F9F4F9923A9F0F92F88
:1016500096E9BB279395F695879577956795B79506
:10166000F111F8CFFAF4BB0F11F460FF1BC06F5FEC
:101670007F4F8F4F9F4F16C0882311F096E911C0FE
:10168000772321F09EE8872F762F05C0662371F01F
:1016900096E8862F70E060E02AF09A95660F771F33
:1016A000881FDAF7880F9695879597F90895990F0F
:1016B0000008550FAA0BE0E8FEEF16161706E8071C
:1016C000F907C0F012161306E407F50798F0621B3D
:1016D000730B840B950B39F40A2661F0232B242B12
:1016E000252B21F408950A2609F4A140A6958FEF31
:1016F000811D811D089597F99F6780E870E060E083
:1017000008959FEF80EC089500240A94161617069A
:1017100018060906089500240A94121613061406E2
:1017200005060895092E0394000C11F4882352F045
:10173000BB0F40F4BF2B11F460FF04C06F5F7F4FFD
:101740008F4F9F4F089557FD9058440F551F59F0E4
:101750005F3F71F04795880F97FB991F61F09F3F9E
:1017600079F087950895121613061406551FF2CFC7
:101770004695F1DF08C0161617061806991FF1CF17
:1017800086957105610508940895E894BB2766273E
:101790007727CB0197F908950BD0C4CFB5DF28F098
:1017A000BADF18F0952309F0A6CFABCF1124EECF06
:1017B000CADFA0F3959FD1F3950F50E0551F629FAC
:1017C000F001729FBB27F00DB11D639FAA27F00D9A
:1017D000B11DAA1F649F6627B00DA11D661F829FC1
:1017E0002227B00DA11D621F739FB00DA11D621FA6
:1017F000839FA00D611D221F749F3327A00D611DC3
:10180000231F849F600D211D822F762F6A2F1124A4
:101810009F5750408AF0E1F088234AF0EE0FFF1FF7
:10182000BB1F661F771F881F91505040A9F79E3F2E
:10183000510570F060CFAACF5F3FECF3983EDCF328
:10184000869577956795B795F795E7959F5FC1F76B
:10185000FE2B880F911D9695879597F908950F9304
:101860001F93CF93DF93CDB7DEB72E970FB6F894C3
:10187000DEBF0FBECDBF0D891E8986E08C831A8323
:1018800009838FEF9FE79E838D83AE01475E5F4F95
:101890006F89788DCE01019610D0EF81F885E00F29
:1018A000F11F10822E960FB6F894DEBF0FBECDBF8B
:1018B000DF91CF911F910F9108952F923F924F92F8
:1018C0005F926F927F928F929F92AF92BF92CF92D0
:1018D000DF92EF92FF920F931F93CF93DF93CDB7D9
:1018E000DEB72B970FB6F894DEBF0FBECDBF6C01ED
:1018F0007B018A01FC0117821682838181FFBFC1AF
:10190000CE0101963C01F6019381F70193FD85918B
:1019100093FF81917F01882309F4ADC1853239F4A9
:1019200093FD859193FF81917F01853221F4B6016A
:1019300090E0D6D1E8CF912C212C312CFFE1F3158A
:10194000D8F08B3279F038F4803279F08332A1F418
:10195000232D20611DC08D3261F0803369F4232D69
:10196000216016C0832D8260382EE32DE4603E2E68
:101970002AC0F32DF8601DC037FC2DC020ED280FC4
:101980002A3040F08E32B9F436FC75C1232D206424
:10199000322E19C036FE06C08AE0989E200D112412
:1019A000922E11C0EAE02E9E200D1124222EF32D3E
:1019B000F0623F2E08C08C3621F4832D8068382ECB
:1019C00002C0883641F4F70193FD859193FF819120
:1019D0007F018111B3CF982F9F7D9554933028F4C8
:1019E0000C5F1F4F9FE399830DC0833631F083371F
:1019F00071F0833509F055C020C0F80180818983DA
:101A00000E5F1F4F88248394912C530112C028012C
:101A1000F2E04F0E511CF801A080B18036FE03C0E9
:101A2000692D70E002C06FEF7FEFC5014ED14C0110
:101A30008201F32DFF773F2E15C0280122E0420ED0
:101A4000511CF801A080B18036FE03C0692D70E002
:101A500002C06FEF7FEFC5012DD14C01F32DF0686F
:101A60003F2E820133FC19C0822D90E08816990622
:101A7000A0F4B60180E290E033D12A94F5CFF501CD
:101A800037FC859137FE81915F01B60190E028D146
:101A900021102A9421E0821A91088114910479F787
:101AA000E1C0843611F0893639F5F80137FE07C0F8
:101AB00060817181828193810C5F1F4F08C06081BA
:101AC0007181072E000C880B990B0E5F1F4FF32DB1
:101AD000FF763F2E97FF09C0909580957095619590
:101AE0007F4F8F4F9F4FF0683F2E2AE030E0A301D9
:101AF00033D1882E861844C0853731F4232D2F7EAC
:101B0000B22E2AE030E025C0932D997FB92E8F3672
:101B1000C1F018F4883579F0AEC0803719F08837F5
:101B200021F0A9C0E92FE061BE2EB4FE0DC0FB2D4F
:101B3000F460BF2E09C034FE0AC0292F2660B22EE1
:101B400006C028E030E005C020E130E002C020E11E
:101B500032E0F801B7FE07C0608171818281938114
:101B60000C5F1F4F06C06081718180E090E00E5FC6
:101B70001F4FA301F1D0882E8618FB2DFF773F2E33
:101B800036FE0DC0232D2E7FA22E891458F434FE6C
:101B90000BC032FC09C0832D8E7EA82E05C0B82C48
:101BA000A32C03C0B82C01C0B92CA4FE0FC0FE01A9
:101BB000E80DF11D8081803321F49A2D997EA92EA4
:101BC00009C0A2FE06C0B394B39404C08A2D8678DF
:101BD00009F0B394A3FC10C0A0FE06C0B21480F4B8
:101BE000280C922C9B180DC0B21458F4B60180E258
:101BF00090E076D0B394F8CFB21418F42B1802C04A
:101C0000982C212CA4FE0FC0B60180E390E068D090
:101C1000A2FE16C0A1FC03C088E790E002C088E5E0
:101C200090E0B6010CC08A2D867851F0A1FE02C06A
:101C30008BE201C080E2A7FC8DE2B60190E050D0BB
:101C4000891430F4B60180E390E04AD09A94F8CF3A
:101C50008A94F301E80DF11D8081B60190E040D037
:101C60008110F6CF222009F44ECEB60180E290E03A
:101C700037D02A94F7CFF6018681978102C08FEF83
:101C80009FEF2B960FB6F894DEBF0FBECDBFDF914E
:101C9000CF911F910F91FF90EF90DF90CF90BF9069
:101CA000AF909F908F907F906F905F904F903F90FC
:101CB0002F900895FC010590615070400110D8F7F5
:101CC000809590958E0F9F1F0895FC016150704084
:101CD00001900110D8F7809590958E0F9F1F089561
:101CE0000F931F93CF93DF93FB01238121FD03C04B
:101CF0008FEF9FEF2CC022FF16C0468157812481B1
:101D000035814217530744F4A081B1819D012F5FB3
:101D10003F4F318320838C93268137812F5F3F4F44
:101D20003783268314C08B01EC01FB010084F1850D
:101D3000E02D0995892BE1F6D80116968D919C919D
:101D40001797019617969C938E931697CE01DF9165
:101D5000CF911F910F910895FA01AA27283051F1D0
:101D6000203181F1E8946F936E7F6E5F7F4F8F4FCC
:101D70009F4FAF4FB1E03ED0B4E03CD0670F781F2B
:101D8000891F9A1FA11D680F791F8A1F911DA11D10
:101D90006A0F711D811D911DA11D20D009F4689449
:101DA0003F912AE0269F11243019305D3193DEF6F1
:101DB000CF010895462F4770405D4193B3E00FD0A7
:101DC000C9F7F6CF462F4F70405D4A3318F0495D92
:101DD00031FD4052419302D0A9F7EACFB4E0A69575
:101DE0009795879577956795BA95C9F70097610597
:101DF000710508959B01AC010A2E069457954795ED
:101E000037952795BA95C9F7620F731F841F951FE1
:081E1000A01D0895F894FFCF16
:101E18001F0000010002000200020003000300048A
:101E28000005000600070008000A000B000D00105E
:101E380000130017001B00200026002D003600406C
:101E4800004C005B006C0080009800B500D700FFD4
:101E580000DA010001696E697469616C697A696EFA
:101E68006720646F6E650A007374617274696E67C7
:101E7800206B65726E656C0A002569006F7065726B
:101E88006174696E675F73797374656D0068656CFA
:101E98006C6F5F776F726C6400636F756E745F64EC
:101EA8006F776E006766785F746573740073657228
:101EB80069616C5F6C697374656E657200636C65EB
:101EC800617200657865633E20002070726F6772EA
:101ED800616D73206C6F616465640A0048656C6CA1
:101EE8006F20576F726C64210A0053657269616CC8
:0A1EF8002D4C697374656E6572006D
:00000001FF
