:100000007FC200009BC2000099C20000F2C2000043
:1000100095C2000093C2000091C200008FC2000090
:100020008DC200008BC2000089C2000087C20000A0
:1000300085C2000083C2000081C20000E0C600004B
:100040007DC200007BC2000079C2000077C20000C0
:1000500075C2000073C2000071C200006FC20000D0
:100060006DC200006BC2000069C2000067C20000E0
:1000700065C2000063C2000061C200005FC20000F0
:100080005DC200005BC200000C949B0800000000F1
:1000900000000000000000000000FC040000000060
:1000A000CF8000000000000000000018FC08FC6881
:1000B0000030F9BABF30000CFFAE6E0C0020DCCF70
:1000C000CC08000C0CFC0E0700B8CCEC20000003A0
:1000D00023EFDF770000E03030000028EEDEF88C00
:1000E0000000000000000000FC1800000000E41BFD
:1000F000000000001BE4000000001BE40000000002
:10010000E41B00000000000000000028F0BFF02801
:100110000000FC0000000303FF03030200000000D6
:1001200000000000F82C00000000000000000000AB
:1001300000C0C0C00000000000000000000000007F
:10014000000000E02E0200E02E02000000A02C0CB7
:100150002CE0002BE5C0D02F00202CFC00000080FC
:10016000C0FFC0C000301C0CAC2000E0F8CDC3C004
:100170000020380CACA00030D1C3DB7C0000C0787C
:10018000FC00000E0ECCFFCC0054AC0C0C04003173
:10019000E3C3C37E0040B02C0C0C000ABFC3C3EE07
:1001A000003C0C0C9C68000000E41B0000A06C0CE0
:1001B0006CA00068C7C3C76800A0AC0C1CF000802E
:1001C000C3C3E32F000080C08000000080C0800017
:1001D0000000203020000000F82C04000000000087
:1001E00080C0080C2EB3C3C000000000000088CC03
:1001F000CCCCCCCCC08000000000C0C3B32E0C0817
:1002000000202C0C2CF0000040CC8B0100F81FE3E8
:1002100077F8002FF4CFCD4F000CEC3CE000C0F895
:10022000CF0CCEF908AC5C0C0CF880EAD7C3C3ED58
:10023000B02C0C1C38283ED0C0C0B020ACAC0C0C8C
:10024000B880EAEAC0C0B90A08AC5C8C4C3C80EAD1
:10025000D7CBC5F00CFC0CCC1C3CC0FFC3CF0000BE
:10026000F01C0C1C38147AC0C8CCBC1C08AC5C0058
:100270000CFC80EAD703C3FF000C0CFC0C0C00C084
:10028000C0FFC0C000080CACAC0C7CC0C0FA2A0097
:1002900008AC5C88D83C40EADF8B2CE00CFC0C08F6
:1002A0000000C0FFC0C0E8A85CFCE000E0FCD5FF97
:1002B000C20FC1FF08FCB4800CFC80FFC00B78FFAC
:1002C00040B02C0C1CB4063AE0C0D07A0CFC0C0CEC
:1002D000B890C0FFCC8C0E0190AC0B03039D010EB7
:1002E000F4F0F0DE08AC5C0C2CF040EADD8C2EF271
:1002F00000A0AC0C1C3C00F0C3C3C3BD002C0CFC24
:100300000C3C0080C0FFC08008FC0C080CFC003FC7
:10031000E0C0C07F0CBC0C000CFC00016EE0BE0213
:100320001CEC4CC04CFC00FFFA0BBEAF083CD840A4
:10033000EC2C80F0ED07ECE0082CEC40D83C0040C1
:10034000C0FFC28000281C4CEC2C00E0ECC7C0F0C1
:100350000000FF0302000000FFC08000000BB88017
:1003600000000000000BB880000003FF0000000048
:10037000C0FF00000000000000000080E030E080CE
:10038000000000000000000000000000000000006D
:100390000000000020E080000040C0C0C00000B9A4
:1003A000CDCCEEEA08FC80C0C08080FFE3C0C0BBBB
:1003B0000000C0C0C080003FD1C0C1C340C0C0CC9D
:1003C000FC007BC0C0E2FFC00040C0C0C00000BF56
:1003D000CCCCCDCFC0E0ECCCCC08C0EAEAC0C000A9
:1003E000B40C0C3CFC0807CCCCEE3F0008ACD4C0ED
:1003F000C08080EAD700C0FF0080C0CC000000C0F1
:10040000C0FFC0C0000C0C0CFC0000C0C0C0BF008E
:10041000000CFC40C0C000C0FFAEF3C000080CFCE4
:10042000000000C0C0FFC0C0C0C0C0C0C0C0C0FF8E
:10043000C1AAD65580C0C0C0C08040EAD700C0FF66
:100440000000C0C0C04000BFC1C0C0BB08FC380C29
:100450000CB880FFCE8C0C0BB40C0C2CFC0C070CD5
:100460004CCEFFC000C0C080C0C000C0EAD7C08072
:100470000000C0C0C0C000C6CDCCCDBA00C0F0C026
:10048000C0800000FFC0C0B080C04040C0C0006A53
:10049000D5C0E0FF80C0C000C0C000026EC0B80779
:1004A000C0C0800080C000AFE42CB86F00C0C000A6
:1004B000C0C080D0FB0CFBE10CEC0448BC0CC0C1FC
:1004C000FECB00000080C0C0C0C000C2F1ECCBF188
:1004D0000000C0BF0000000000BFC000000000001E
:1004E00000000000000000FF000000BFC00000008E
:1004F000C0BF000000000000000000E030E0C0B01D
:1005000011241FBECFEFD0E4DEBFCDBF11E0A0E0CD
:10051000B1E0E0E2FCE100E00BBF02C007900D9209
:10052000AC3DB107D9F724E1ACEDB1E001C01D92BB
:10053000A831B207E1F7C3D00C940E0E61CD109232
:10054000B90081E18093B800089524EA34E844E9D1
:100550002093BC009091BC0097FFFCCF9091B90014
:10056000987F983011F0903199F78093BB003093C9
:10057000BC009091BC0097FFFCCF9091B900987F90
:10058000903211F0983539F44093BC009091BC0042
:1005900094FDFCCFDDCF089584E98093BC00809169
:1005A000BC0084FDFCCF08958093BB0084E8809359
:1005B000BC008091BC0087FFFCCF9091B900987F70
:1005C00081E0983209F480E0089584EC8093BC00C7
:1005D0008091BC0087FFFCCF8091BB00089584E828
:1005E0008093BC008091BC0087FFFCCF8091BB0052
:1005F00008951F920F920FB60F9211240BB60F920F
:100600002F933F934F935F936F937F938F939F931A
:10061000AF93BF93CF93DF93EF93FF93CFE6D0E0F9
:10062000188286EF809385008BE3809384009DD4AD
:1006300081E08883FF91EF91DF91CF91BF91AF91DE
:100640009F918F917F916F915F914F913F912F91EA
:100650000F900BBE0F900FBE0F901F901895A1E842
:10066000B0E082E08C9381E080936F0096EF9093EE
:1006700085009BE39093840095E09093910020E1A6
:100680002093690024E02DBB2CBB2BE224BD95BD3B
:10069000E0910001F0E0EE0FFF1FEF5FFE4F908151
:1006A00098BD8AB9B093C500A093C40088E1809337
:1006B000C10086E08093C20042DF78940895CFDFC6
:1006C000E2D06CD481E491E01ED184E591E01BD1AD
:1006D000C0D480E090E0089520EE31E0E7EFF3E150
:1006E00051E04AE14E0F519380E090E0D901A80F0C
:1006F000B91F1C924A96803460E19607B9F72F5FC4
:100700003F4F4E13F0CF0895262F2695269530E0C3
:100710006370660F01C0440F6A95EAF7F9019AE128
:10072000899FE00DF11D1124E052FE4F8081482B7E
:100730004083F901E950FC4E81E0808308952F92B7
:100740003F924F925F926F927F928F929F92AF9261
:10075000BF92CF92DF92EF92FF920F931F93CF93AE
:10076000DF9300D000D01F92CDB7DEB70B83E82F08
:10077000F0E0FD83EC8350E04E1B5F0B062F10E092
:1007800030E0201B310B1416150664F0E1E0F0E0B8
:100790004115510511F4E0E0F0E0EE24FF24EE1ADB
:1007A000FF0A03C0EE24E394F12C1216130664F042
:1007B000E1E0F0E02115310511F4E0E0F0E0CC24B7
:1007C000DD24CE1ADF0A03C0CC24C394D12C57FFFA
:1007D00003C05195419551094A0137FF03C0319536
:1007E0002195310939012417350734F03A014901BF
:1007F00016011A82198204C0FA82E982212C312C56
:100800005401B594A7944B817FDF412C512C48149F
:10081000590409F1A618B708B7FE0BC0A80CB91CFB
:100820002C813D812E0D3F1D3D832C830C0D1D1D04
:100830000AC02C813D8189819A81280F391F3D830F
:100840002C83020D131D4B81602F8C815DDF9FEF88
:10085000491A590ADCCF0F900F900F900F900F900C
:10086000DF91CF911F910F91FF90EF90DF90CF908C
:10087000BF90AF909F908F907F906F905F904F90C0
:100880003F902F9008951092DF0128ED32E14DE066
:1008900080E090E0F901E80FF91F1082019686319F
:1008A0009105C1F741502A5E3F4F4111F1CF10929F
:1008B000DE0110921114D1D200D30ECF81E08093CB
:1008C000DF0180936F0008958091DF0181111AC0CC
:1008D00048ED52E12DE080E090E0FA01E80FF91FC9
:1008E0001082019686319105C1F721504A5E5F4F13
:1008F0002111F1CF1092DE0110921114F894ECDE68
:10090000EFD2789408952F923F924F925F926F9218
:100910007F928F929F92AF92BF92CF92DF92EF928F
:10092000FF920F931F93CF93DF93DC018091DF0140
:100930008111C8C09C9141E061E056E1992309F41E
:1009400055C0F09011149A3021F02091DE0126312B
:10095000D9F51092DE0181E08F0D8D3019F0809372
:1009600011143EC0C8EDD2E18CE020E030E08E01F1
:10097000020F131FF801768970832F5F3F4F2631D6
:100980003105A9F7815066968111EFCFF6E1FF9E00
:100990008001112420E030E0EF2DF0E0E901C00FEC
:1009A000D11FC852DD4E18822F5F3F4F26313105CF
:1009B000A9F79A30A9F06093DE015E9F90015F9FD6
:1009C000300D1124F90109C081E0820F8093DE010E
:1009D0005F9DF0011124E20FF11DE852FD4E90835E
:1009E000FD01E40FF11D90814F5FA8CF75DEA8EDEA
:1009F000B2E121E030E044244394FD010190002065
:100A0000E9F731972E2E2A1AED01512C8901095050
:100A10001C4E380141E0641A7108490181E0881ACE
:100A200091088C2F8A1B821508F042C089919FED96
:100A3000980F9F3508F039C08052F3014082F801C9
:100A40004082FCE08F9FC00111244AE1549E500176
:100A500011246501C80CD91CA20EB31E60E070E021
:100A600040E050E07C01E6E0EE0EF11CFA01E80FF8
:100A7000F91FE457FF4F3490FB01EC0DFD1DE052D0
:100A8000FE4F3082F701E40FF51FE457FF4F34901B
:100A9000FB01EA0DFB1DE052FE4F30824F5F5F4FBE
:100AA000665E7F4F4630510509F7F7E05F0EB9CF1C
:100AB00056962E5F3F4F2B31310509F09ECFF894AB
:100AC0000FD27894DF91CF911F910F91FF90EF900B
:100AD000DF90CF90BF90AF909F908F907F906F905E
:100AE0005F904F903F902F9008953F924F925F926A
:100AF0006F927F928F929F92AF92BF92CF92DF922E
:100B0000EF92FF920F931F93CF93DF93CDB7DEB792
:100B1000C054D1090FB6F894DEBF0FBECDBF592F18
:100B20009091DF01913009F0AFC0F52E182FA52F5D
:100B3000A695A695B0E0252F2370C22ED12CC60114
:100B4000880F991FE3E0F0E05F0102C0AA0CBB1C14
:100B50008A95E2F7CD013AE1139F800D911D112492
:100B600080529E4FFC01808190E08A219B2102C02F
:100B7000959587952A95E2F74AE1113AB8F491E004
:100B8000910F9D01419F200D311D112420523E4F98
:100B9000F901208130E02A213B210C2C02C035953F
:100BA00027950A94E2F7192F821739F3E62E652F5D
:100BB00011504E2D812FA8DDCE0101966C010FEF53
:100BC000612C512C2AE7422E34E4332E712CF6018D
:100BD00081909190A190B1906F01262D352D442DDB
:100BE000532DC501B401A4D387FF05C0072D682C80
:100BF000592C4A2C3B2C7394F8E07F12E8CF01115A
:100C000002C01F5F19C0013011F41F5F05C0023020
:100C100019F0033019F41150F3940EC0043011F49C
:100C200011500AC0053011F4115005C0063019F0FA
:100C3000073011F41F5FFA944E2D6F2D812F64DD64
:100C4000CE0181966C010FEF612C512C8AE7482E62
:100C500094E4392E712CF60181909190A190B1907D
:100C60006F01262D352D442D532DC501B40160D3C0
:100C700087FF05C0072D682C592C4A2C3B2C7394F8
:100C8000F8E07F12E8CFBBCFC05CDF4F0FB6F8941F
:100C9000DEBF0FBECDBFDF91CF911F910F91FF90AF
:100CA000EF90DF90CF90BF90AF909F908F907F900C
:100CB0006F905F904F903F9008958091DF01813059
:100CC00009F40ACD0895AF92BF92CF92DF92EF92CE
:100CD000FF920F931F93CF93DF931091DF01113099
:100CE00009F058C0F42EC62FD92EE82E161B062F59
:100CF0000195000F690F08DD6D2D6C1B4F2D8E2D9A
:100D000003DD4F2D6D2D8C2F8E0DFEDC4F2D6D2DA7
:100D10008E2D8C1BF9DCD0E0DC170CF03BC017FDEE
:100D200003C0C1500E5F100FDF5F8D2F880F8F5FE4
:100D3000180FAD2EAE0C4F2DCC2ECD0C6C2D8A2D58
:100D4000E3DCBE2CBD1A4F2D6C2D8B2DDDDC4F2D21
:100D5000CD2CCC1A6C2D8A2DD7DC4F2D6C2D8B2DE4
:100D6000D3DCCD2ECD0C4F2D6C2DBC2EBE0C8B2D7F
:100D7000CBDC4F2D6C2DCE2CCC1A8C2DC5DCAD2CA4
:100D8000AD1A4F2D6A2D8B2DBFDC4F2D6A2D8C2D6A
:100D9000BBDCC2CFDF91CF911F910F91FF90EF90FD
:100DA000DF90CF90BF90AF900895EF92FF920F9396
:100DB0001F93CF93DF932091DF012130C9F4EB0122
:100DC000192FF82EC80F042F292F4C2F692FB7DCAD
:100DD000D10F2D2F4C2F6D2F8F2DB1DC2D2F4F2D9F
:100DE000612F8F2DACDC2D2F4C2F612F8C2FA7DC8A
:100DF000DF91CF911F910F91FF90EF9008951F9277
:100E00000F920FB60F9211240BB60F922F933F93B0
:100E10004F935F936F937F938F939F93AF93BF9302
:100E2000EF93FF93F8945CD07894FF91EF91BF918A
:100E3000AF919F918F917F916F915F914F913F9172
:100E40002F910F900BBE0F900FBE0F901F90189513
:100E50008EBD0DB407FEFDCF089583E181B980EB0F
:100E600084B980E58CBD81E08DBD12B881EFF0DFE3
:100E700087E6EEDF80ECECDF80E4EADF80E5E8DFA8
:100E80008BE2E6DF8BEEE4DF81E8E2DF89E6E0DF9C
:100E900089E8DEDF8FEADCDF84EADACFCF93C82F80
:100EA00012B88F70D5DF8C2F82958F708061CF91B3
:100EB000CFCF12B88F718066CBCFCF93DF9380E016
:100EC000EDDF80E0F6DF82E082B9D8ECC0E280E0BE
:100ED000BFDFC150E1F7D150C9F7DF91CF9108953D
:100EE000BF92CF92DF92EF92FF920F931F93CF9317
:100EF000DF9380E0D3DF80E0DCDF82E082B907EFC0
:100F000013E1C0E0D0E082E0B82E6E018FEFC81A86
:100F1000D80AF80180818130A1F4E12CF12CF7018D
:100F2000EC0FFD1FE052FE4F808192DFFAE1EF0EE1
:100F3000F11C80E4E81680E1F80689F7F8011082D8
:100F400004C012B88C2DB5DFB2B80F5F1F4FE60199
:100F5000CA31D105D1F6DF91CF911F910F91FF904A
:100F6000EF90DF90CF90BF9008951F93CF93DF93C2
:100F70001F92CDB7DEB78CE0E8DA80E015DB0CDB42
:100F80008DE0E3DA22DB182F2ADB898305DB812F52
:100F900099810F90DF91CF911F9108951092C41203
:100FA00084E08093D512E5ECF2E185E691E091834F
:100FB00080838AED98E0938382838BE691E095832A
:100FC000848386E499E09783868387E791E091871D
:100FD00080878DED98E09387828782E891E09587FE
:100FE000848782E399E0978786870895EF92FF923E
:100FF0000F931F93CF937C018BE891E084DC8DE904
:1010000091E081DCC7017FDC86ED91E07CDCC0E013
:101010008091D512C817B8F484E0C89F80011124CC
:101020000B531D4ED8016D917C91C70169D1882366
:1010300041F0D8011296ED91FC9113970995809398
:10104000C412CF5FE5CFCF911F910F91FF90EF902A
:101050000895CF93DF93CDB7DEB764970FB6F894BA
:10106000DEBF0FBECDBF82E891E09093C3128093A4
:10107000C2128091D51290E019D145DC84E190E054
:1010800015D141DC80EA91E03EDC82EB91E03BDC73
:101090008E010F5F1F4FF80184E1F82EF00E1192C0
:1010A000FE12FDCF8091C2129091C312009709F0F9
:1010B0009DDF80E09091C00097FFFCCF9091C6002B
:1010C0009A3039F4C80192DFF8011192FE12FDCF77
:1010D000F0CFF801E80FF11D90838F5FEBCF682F01
:1010E00070E080E090E0BCD120E030E04AE754E4DA
:1010F00023D120E836E948E956E464D285D16095E9
:10110000709570932112609320128091201290911B
:10111000211280939400809120129091211290933B
:101120009500089581E08093710008959093D712FF
:101130008093D61208951F920F920FB60F9211242A
:101140000BB60F922F933F934F935F936F937F93C1
:101150008F939F93AF93BF93EF93FF93F8948091F6
:1011600020129091211280939400809120129091EE
:101170002112909395008091D6129091D712892BCD
:1011800029F0E091D612F091D71209957894FF9149
:10119000EF91BF91AF919F918F917F916F915F91EF
:1011A0004F913F912F910F900BBE0F900FBE0F905C
:1011B0001F90189589DB80E0089584E180931214D4
:1011C00080911214882361F086EC91E09CDB809181
:1011D000121481508093121488EE93E05CD0F0CF0B
:1011E00008959091171480911414890F809314140A
:1011F000823311F48FEF03C0811103C081E080932B
:1012000017145BDD43E060911414809115149091E4
:10121000161459DD43E064E174E180E090E0C5DD3F
:1012200060E08BE09BE061DC43E064E174E184E139
:1012300090E0BBDD61E08FE19BE057DC43E064E1DF
:1012400074E188E290E0B1DD62E083E39BE04DDC95
:1012500043E064E174E18CE390E0A7DD63E087E4C0
:101260009BE043CC2BDBE5E1F4E180E5808384E384
:10127000818381E0809317148093141486E92FDF13
:1012800081EF98E053DF4EDF80E008958AEC91E033
:101290003ADB80E00895009741F0E7E8F3E1319709
:1012A000F1F700C000000197F6CF08950F931F9348
:1012B000CF93DF93CDB7DEB72A970FB6F894DEBF92
:1012C0000FBECDBF9F938F9388ED91E09F938F9337
:1012D0008E010F5F1F4F1F930F93D7D10F900F9069
:1012E0000F900F900F900F90C8012A960FB6F894A8
:1012F000DEBF0FBECDBFDF91CF911F910F9108953B
:10130000AC0120E0E22FF0E0DA01AE0FBF1F9C91AC
:10131000E60FF71F992339F03081332321F093131F
:1013200005C02F5FEFCF81E02081921380E0089508
:10133000D4D008F481E008950CD00AC102D140F065
:10134000F9D030F021F45F3F19F0EBC0511134C1F6
:10135000EEC00FD198F39923C9F35523B1F3951B30
:10136000550BBB27AA2762177307840738F09F5FC6
:101370005F4F220F331F441FAA1FA9F333D00E2E35
:101380003AF0E0E830D091505040E695001CCAF7A2
:1013900029D0FE2F27D0660F771F881FBB1F261767
:1013A00037074807AB07B0E809F0BB0B802DBF013A
:1013B000FF2793585F4F2AF09E3F510568F0B1C058
:1013C000FBC05F3FECF3983EDCF38695779567951D
:1013D000B795F7959F5FC9F7880F911D96958795EB
:1013E00097F90895E1E0660F771F881FBB1F62170A
:1013F00073078407BA0720F0621B730B840BBA0BC8
:10140000EE1F88F7E0950895BCD088F09F5790F0C4
:10141000B92F9927B751A0F0D1F0660F771F881F19
:10142000991F1AF0BA95C9F712C0B13081F0C3D034
:10143000B1E00895C0C0672F782F8827B85F39F0D2
:10144000B93FCCF3869577956795B395D9F73EF478
:1014500090958095709561957F4F8F4F9F4F089520
:10146000E89409C097FB3EF490958095709561953E
:101470007F4F8F4F9F4F9923A9F0F92F96E9BB27F4
:101480009395F695879577956795B795F111F8CF70
:10149000FAF4BB0F11F460FF1BC06F5F7F4F8F4FDB
:1014A0009F4F16C0882311F096E911C0772321F0D1
:1014B0009EE8872F762F05C0662371F096E8862F69
:1014C00070E060E02AF09A95660F771F881FDAF7C0
:1014D000880F9695879597F90895990F0008550FED
:1014E000AA0BE0E8FEEF16161706E807F907C0F0AA
:1014F00012161306E407F50798F0621B730B840BB2
:10150000950B39F40A2661F0232B242B252B21F48B
:1015100008950A2609F4A140A6958FEF811D811D2B
:10152000089597F99F6780E870E060E008959FEF65
:1015300080EC089500240A9416161706180609066A
:10154000089500240A941216130614060506089539
:10155000092E0394000C11F4882352F0BB0F40F4C1
:10156000BF2B11F460FF04C06F5F7F4F8F4F9F4F01
:10157000089557FD9058440F551F59F05F3F71F083
:101580004795880F97FB991F61F09F3F79F08795EA
:101590000895121613061406551FF2CF4695F1DF73
:1015A00008C0161617061806991FF1CF8695710503
:1015B000610508940895E894BB2766277727CB0137
:1015C00097F908950BD0C4CFB5DF28F0BADF18F033
:1015D000952309F0A6CFABCF1124EECFCADFA0F33D
:1015E000959FD1F3950F50E0551F629FF001729FB8
:1015F000BB27F00DB11D639FAA27F00DB11DAA1FD7
:10160000649F6627B00DA11D661F829F2227B00D23
:10161000A11D621F739FB00DA11D621F839FA00DAE
:10162000611D221F749F3327A00D611D231F849FFE
:10163000600D211D822F762F6A2F11249F57504055
:101640008AF0E1F088234AF0EE0FFF1FBB1F661FF0
:10165000771F881F91505040A9F79E3F510570F0A9
:1016600060CFAACF5F3FECF3983EDCF38695779589
:101670006795B795F795E7959F5FC1F7FE2B880FA4
:10168000911D9695879597F908950F931F93CF9382
:10169000DF93CDB7DEB72E970FB6F894DEBF0FBE3F
:1016A000CDBF0D891E8986E08C831A8309838FEF55
:1016B0009FE79E838D83AE01475E5F4F6F89788D74
:1016C000CE01019611D02F813885F801E20FF31F6A
:1016D00010822E960FB6F894DEBF0FBECDBFDF91FD
:1016E000CF911F910F9108952F923F924F925F9249
:1016F0006F927F928F929F92AF92BF92CF92DF9222
:10170000EF92FF920F931F93CF93DF93CDB7DEB786
:101710002C970FB6F894DEBF0FBECDBF7C016B01D6
:101720008A01FC0117821682838181FFB0C1CE013C
:1017300001964C01F7019381F60193FD859193FF8A
:1017400081916F01882309F49EC1853239F493FD9C
:10175000859193FF81916F01853221F4B70190E06B
:10176000C7D1E8CF512C312C20E02032A0F48B32AD
:1017700069F030F4803259F0833269F420612CC072
:101780008D3239F0803339F4216026C02260246024
:1017900023C0286021C027FD27C030ED380F3A3024
:1017A00078F426FF06C0FAE05F9E300D1124532E18
:1017B00013C08AE0389E300D1124332E20620CC0F5
:1017C0008E3221F426FD5FC1206406C08C3611F4F0
:1017D000206802C0883641F4F60193FD859193FF9D
:1017E00081916F018111C1CF982F9F7D95549330C6
:1017F00028F40C5F1F4FFFE3F9830DC0833631F0EF
:10180000833771F0833509F057C021C0F80180811A
:1018100089830E5F1F4F44244394512C540114C0FC
:101820003801F2E06F0E711CF801A080B18026FF34
:1018300003C0652D70E002C06FEF7FEFC5012C87FC
:101840004CD12C0183012C852F77222E16C0380114
:10185000F2E06F0E711CF801A080B18026FF03C07A
:10186000652D70E002C06FEF7FEFC5012C872AD194
:101870002C012C852068222E830123FC19C0832D86
:1018800090E048165906A0F4B70180E290E030D10C
:101890003A94F5CFF50127FC859127FE81915F01F0
:1018A000B70190E025D131103A94F1E04F1A510878
:1018B0004114510479F7DEC0843611F0893631F5D0
:1018C000F80127FF07C060817181828193810C5FDD
:1018D0001F4F08C060817181072E000C880B990B87
:1018E0000E5F1F4F2F76722E97FF09C0909580953F
:1018F000709561957F4F8F4F9F4F2068722E2AE021
:1019000030E0A4012DD1A82EA81843C0853729F4B2
:101910002F7EB22E2AE030E025C0F22FF97FBF2EB5
:101920008F36C1F018F4883579F0ADC0803719F0E2
:10193000883721F0A8C02F2F2061B22EB4FE0DC031
:101940008B2D8460B82E09C024FF0AC09F2F96609B
:10195000B92E06C028E030E005C020E130E002C02A
:1019600020E132E0F801B7FE07C060817181828119
:1019700093810C5F1F4F06C06081718180E090E011
:101980000E5F1F4FA401ECD0A82EA818FB2DFF77E7
:101990007F2E76FE0BC0372D3E7FA51450F474FECB
:1019A0000AC072FC08C0372D3E7E05C0BA2C372D08
:1019B00003C0BA2C01C0B52C34FF0DC0FE01EA0DE6
:1019C000F11D8081803311F4397E09C032FF06C0D9
:1019D000B394B39404C0832F867809F0B39433FD95
:1019E00012C030FF06C05A2CB31418F4530C5B1805
:1019F000B32CB31460F4B70180E290E03C8778D058
:101A0000B3943C85F6CFB31410F43B1801C0312CCD
:101A100034FF11C0B70180E390E03C8769D03C857A
:101A200032FF16C031FD03C088E790E002C088E5B0
:101A300090E0B7010CC0832F867851F031FF02C0CF
:101A40008BE201C080E237FD8DE2B70190E050D01B
:101A5000A51430F4B70180E390E04AD05A94F8CF4F
:101A6000AA94F401EA0DF11D8081B70190E040D005
:101A7000A110F6CF332009F45DCEB70180E290E0EB
:101A800037D03A94F7CFF7018681978102C08FEF64
:101A90009FEF2C960FB6F894DEBF0FBECDBFDF913F
:101AA000CF911F910F91FF90EF90DF90CF90BF905B
:101AB000AF909F908F907F906F905F904F903F90EE
:101AC0002F900895FC010590615070400110D8F7E7
:101AD000809590958E0F9F1F0895FC016150704076
:101AE00001900110D8F7809590958E0F9F1F089553
:101AF0000F931F93CF93DF93FB01238121FD03C03D
:101B00008FEF9FEF28C022FF16C0468157812481A6
:101B100035814217530744F4A081B1819D012F5FA5
:101B20003F4F318320838C93268137812F5F3F4F36
:101B30003783268310C0EB01092F182F0084F1850D
:101B4000E02D0995892BE1F68E819F8101969F8377
:101B50008E83812F902FDF91CF911F910F91089548
:101B6000FA01AA27283051F1203181F1E8946F93CE
:101B70006E7F6E5F7F4F8F4F9F4FAF4FB1E03ED074
:101B8000B4E03CD0670F781F891F9A1FA11D680F12
:101B9000791F8A1F911DA11D6A0F711D811D911D45
:101BA000A11D20D009F468943F912AE0269F1124BA
:101BB0003019305D3193DEF6CF010895462F47701E
:101BC000405D4193B3E00FD0C9F7F6CF462F4F7079
:101BD000405D4A3318F0495D31FD4052419302D0D7
:101BE000A9F7EACFB4E0A69597958795779567957D
:101BF000BA95C9F700976105710508959B01AC017D
:101C00000A2E06945795479537952795BA95C9F7A3
:101C1000620F731F841F951FA01D0895F894FFCFB6
:101C20001F00000100020002000200030003000484
:101C30000005000600070008000A000B000D001058
:101C400000130017001B00200026002D0036004066
:101C5000004C005B006C0080009800B500D700FFCE
:101C600000696E697469616C697A696E6720646F76
:101C70006E650A007374617274696E67206B6572B9
:101C80006E656C0A00636C6561720068656C6C6FF0
:101C90005F776F726C6400636F756E745F646F77EB
:101CA0006E006766785F74657374006B65726E654D
:101CB0006C20657865637574696F6E0A00203E005C
:101CC0002070726F6772616D73206C6F6164656400
:101CD0000A006C697374656E696E6720746F2052B8
:101CE000533233320A0063640A0048656C6C6F201B
:0C1CF000576F726C64210A002569000027
:00000001FF
