S00B00004750552E737265632D
S11300007FC200009BC2000099C200000C948E09BC
S113001095C2000093C2000091C200008FC200008C
S11300208DC200008BC2000089C2000087C200009C
S113003085C2000083C2000081C2000056C70000D0
S11300407DC200007BC2000079C2000077C20000BC
S113005075C2000073C2000071C200006FC20000CC
S11300606DC200006BC2000069C2000067C20000DC
S113007065C2000063C2000061C200005FC20000EC
S11300805DC200005BC200000C944F090000000038
S113009000000000000000000000FC000000000060
S11300A03300000000FC00FC000000000000000021
S11300B030FF30FF3000033F033F030030CCFFCC60
S11300C000000C0C3F0C03000F0FC0300C000C039D
S11300D0003C3C003CC3330C00000F30330C3300B5
S11300E00000330F000000000000000000F00C03CB
S11300F0000000030C30000000030CF0000000308E
S11301000C03000030C0FCC0300003000F000300EB
S1130110C0C0FCC0C00000000F00000000000000D0
S113012000000000330F0000C0C0C0C0C0000000C9
S113013000000000000000000000003C3C00000043
S11301400000C0300C000C0300000000FC03C333AB
S1130150FC000F3330300F00000CFF000000303083
S11301603F3030000C0303C33C00303C33303000DC
S1130170030333CF03000C3030300F00C0300CFFCA
S113018000000303033F03003F333333C300303025
S113019030300F00F0CCC3C300000F3030300F00FC
S11301A00303C3330F00003F000000003CC3C3C37C
S11301B03C000F3030300F003CC3C3C3FC000030A0
S11301C0300C0300003C3C000000000F0F00000056
S11301D0003C3C00000000330F000000C0300C0362
S11301E0000000030C3000003030303030000303D6
S11301F00303030000030C30C00000300C030000B4
S11302000C0303C33C000000330000000CC3C30311
S1130210FC000F303F300F00FC030303FC003F03DE
S113022003033F00FFC3C3C33C003F3030300F0023
S1130230FC0303030C000F3030300C00FF03030CED
S1130240F0003F30300C0300FFC3C3C303003F3052
S113025030303000FFC3C3C303003F000000000080
S1130260FC03C3C3CC000F3030303F00FFC0C0C01C
S1130270FF003F0000003F000303FF030300303092
S11302803F303000000003FF03000C30300F00004B
S1130290FFC0300C03003F00030C3000FF000000DF
S11302A000003F3030303000FF0CF00CFF003F0006
S11302B000003F00FF30C000FF003F0000033F008C
S11302C0FC030303FC000F3030300F00FFC3C3C333
S11302D03C003F0000000000FC030303FC000F305F
S11302E0330C3300FFC3C3C33C003F00030C300096
S11302F03CC3C3C30300303030300F000303FF039B
S1130300030000003F000000FF000000FF000F306A
S113031030300F00FF000000FF00030C300C03001E
S1130320FF00C000FF000F300F300F000F30C0304F
S11303300F003C0300033C003FC000C03F0000002E
S11303403F0000000303C3330F003C333030300060
S113035000FF03030000003F303000000C30C000F9
S11303600000000000030C00000303FF0000003045
S1130370303F0000300C030C30000000000000008F
S113038000000000000030303030300000030C303A
S1130390000000000000000000303030C0000C33CA
S11303A033333F00FFC03030C0003F3030300F00E7
S11303B0C030303000000F3030300C00C03030C05E
S11303C0FF000F3030303F00C0303030C0000F33FA
S11303D033330300C0FCC3030C00003F00000000E3
S11303E0F00C0C0CFC00003333330F00FFC0303032
S11303F0C0003F0000003F000030F3000000003068
S11304003F300000000000F300000C30300F00000B
S1130410FF00C03000003F030C3000000003FF0069
S1130420000000303F300000F030C030C0003F001A
S113043003003F00F0C03030C0003F0000003F0028
S1130440C0303030C0000F3030300F00F03030306A
S1130450C0003F0303030000C03030C0F0000003BD
S113046003033F00F0C03030C0003F000000000034
S1130470C03030300000303333330C0030FF3000F4
S11304800000000F30300C00F0000000F0000F30CE
S1130490300C3F00F0000000F000030C300C0300AF
S11304A0F0000000F0000F300F300F0030C000C02B
S11304B03000300C030C3000F0000000F00000337A
S11304C033330F00003030F03000303C3330300034
S11304D0C03C03000000000F300000000000FF00DB
S11304E0000000003F0000000000033CC0000000CA
S11304F0300F0000C030C000C00000000003000046
S113050011241FBECFEFD0E4DEBFCDBF12E0A0E0C8
S1130510B1E0E8E2FFE100E00BBF02C007900D92FA
S1130520A432B107D9F724E1A4E2B2E001C01D92DC
S1130530AD37B207E1F78DD00C94920F61CD1092D4
S1130540B90081E18093B800089524EA34E844E9CD
S11305502093BC009091BC0097FFFCCF9091B90010
S1130560987F983011F0903199F78093BB003093C5
S1130570BC009091BC0097FFFCCF9091B900987F8C
S1130580903211F0983539F44093BC009091BC003E
S113059094FDFCCFDDCF089584E98093BC00809165
S11305A0BC0084FDFCCF08958093BB0084E8809355
S11305B0BC008091BC0087FFFCCF9091B900987F6C
S11305C081E0983209F480E0089584EC8093BC00C3
S11305D08091BC0087FFFCCF8091BB00089584E824
S11305E08093BC008091BC0087FFFCCF8091BB004E
S11305F00895A1E8B0E082E08C9381E080936F00DD
S113060096EF909385009BE39093840095E09093FC
S1130610910020E12093690024E02DBB2CBB2BE248
S113062024BD95BDE0910001F0E0EE0FFF1FEF5FE8
S1130630FE4F908198BD8AB9B093C500A093C400C1
S113064088E18093C10086E08093C20078DF7894CB
S11306500895CFDF7BD13BD59AD580E090E0089513
S1130660E6E5F4E18CE292E031E03193DC0120EA4A
S11306701C9221505A962111FBCF019624E1E037B8
S1130680F20799F70895262F2695269530E0637092
S1130690660F01C0440F6A95EAF7F9019AE1899F50
S11306A0E00DF11D1124E45DFD4F8081482B408352
S11306B0F901EA5AFB4E81E0808308952F923F921C
S11306C04F925F926F927F928F929F92AF92BF925E
S11306D0CF92DF92EF92FF920F931F93CF93DF930A
S11306E000D000D01F92CDB7DEB70B83E82FF0E027
S11306F0FD83EC8350E04E1B5F0B062F10E030E0CF
S1130700201B310B1416150664F0E1E0F0E04115EE
S1130710510511F4E0E0F0E0662477246E1A7F0AB4
S113072003C066246394712C1216130664F0E1E08E
S1130730F0E02115310511F4E0E0F0E0EE24FF24AF
S1130740EE1AFF0A03C0EE24E394F12C57FF03C012
S11307505195419551095A0137FF03C031952195AF
S1130760310929012417350734F02A0159011701E9
S11307701A82198204C07A826982212C312C650183
S1130780D594C7944B817FDF812C912C8A149B04D0
S113079009F1C418D508D7FE0BC0CA0CDB1C2C8188
S11307A03D81260D371D3D832C830E0D1F1D0AC070
S11307B08C819D81E981FA818E0F9F1F9D838C839B
S11307C0020D131D4B81602F8C815DDFFFEF8F1AAB
S11307D09F0ADCCF0F900F900F900F900F90DF9136
S11307E0CF911F910F91FF90EF90DF90CF90BF902A
S11307F0AF909F908F907F906F905F904F903F90BD
S11308002F900895EF92FF920F931F93CF93DF934E
S1130810F82E162FD22FC82FC40F262F4C2F4EDFA1
S1130820D10F2D2F4C2F6D2F8F2D48DF2D2F4F2DB6
S1130830612F8F2D43DF2D2F4C2F612F8C2F3EDF07
S1130840DF91CF911F910F91FF90EF9008953F9208
S11308504F925F926F927F928F929F92AF92BF92CC
S1130860CF92DF92EF92FF920F931F93CF93DF9378
S1130870FC0101900020E9F731973E2E381A582EDA
S1130880DC0150E0CA018A5A9B4E3C0171E07A01B6
S11308909FEFE91AF90AF701EA5AFB4E4F018A2F32
S11308A08519831508F040C08D919FED980F9F35F1
S11308B010F06A5FF4CF8052F3017083F401708307
S11308C0FCE08F9FC00111242AE1629F8001112462
S11308D05A01A00EB11E0E0D1F1DC0E0D0E020E095
S11308E030E06C01E6E0CE0ED11CF901E80FF91FEF
S11308F0E457FF4F4490FE01EA0DFB1DE45DFD4FFC
S11309004082F601E20FF31FE457FF4F4490FE01CB
S1130910E00FF11FE45DFD4F40822F5F3F4F6A9669
S11309202630310511F7C5CFDF91CF911F910F917B
S1130930FF90EF90DF90CF90BF90AF909F908F90FB
S11309407F906F905F904F903F90089510922B028C
S113095047E353E12DE080E090E0FA01E80FF91F4E
S11309601082019686319105C1F721504A5E5F4F8E
S11309702111F1CF109226021092711413D342D395
S11309806FCE10922B0210926F00089581E0809335
S11309902B0280936F00089580912B0281111AC05D
S11309A047E353E12DE080E090E0FA01E80FF91FFE
S11309B01082019686319105C1F721504A5E5F4F3E
S11309C02111F1CF1092260210927114F89448DE8E
S11309D02CD378940895DF92EF92FF920F931F9394
S11309E0CF93DF93DC01D0902B02D1106BC09C918C
S11309F041E011E056E1992309F453C0E0917114E8
S1130A009A3021F0209126022631C9F5109226024F
S1130A1081E08E0F8D3019F0809371143CC067E330
S1130A2073E1FCE09B0186E1E9010E8909939E01D3
S1130A308150D1F7F1506A5E7F4FF111F3CFD6E1C7
S1130A40ED9F7001112420E030E0F0E0B701620F67
S1130A50731F695C7C4EEB0118822F5F3F4F263178
S1130A603105A1F79A30B9F0109326025E9F9001E8
S1130A705F9F300D1124F901E95CFC4E0BC081E04D
S1130A80820F809326025E9FF0011124E95CFC4EE4
S1130A90E20FF11D9083FD01E40FF11D90814F5F82
S1130AA0AACFDEDD07E313E14D2D60E0C801CFDE00
S1130AB00A5E1F4FD394D394DAE1DD12F5CFF89494
S1130AC0B4D27894DF91CF911F910F91FF90EF9062
S1130AD0DF9008950F931F93CF93DF93CDB7DEB7C5
S1130AE02A970FB6F894DEBF0FBECDBF1F928F9327
S1130AF081E491E09F938F938E010F5F1F4F1F93AB
S1130B000F9335D7C80167DF0F900F900F900F90A8
S1130B100F900F902A960FB6F894DEBF0FBECDBF8C
S1130B20DF91CF911F910F9108955F926F927F9201
S1130B308F929F92AF92BF92CF92DF92EF92FF92E9
S1130B400F931F93CF93DF93592F90912B029130E2
S1130B5009F0ADC0152FC82FA52FA695A695B0E016
S1130B60252F2370E22EF12CC701880F991FE3E093
S1130B70F0E06F0102C0CC0CDD1C8A95E2F7CD01D8
S1130B803AE1C39F800D911D1124845D9D4FFC01AA
S1130B90808190E08C219D2102C0959587952A95AE
S1130BA0E2F74AE1C13AB8F491E09C0F9D014C9FF1
S1130BB0200D311D1124E901C45DDD4F288130E091
S1130BC02C213D210E2C02C0359527950A94E2F77D
S1130BD0C92F821739F3062F652FC150402F8C2F50
S1130BE052DDA12CB12CDFEF812C712C2AE7622E6F
S1130BF034E4532E912CF501C190D190E190F19001
S1130C005F01282D372D462D552DC701B60102D57C
S1130C1087FF05C0D92D8C2C7D2C6E2C5F2C9394D2
S1130C20F8E09F12E8CFD11102C0CF5F19C0D130D4
S1130C3011F4CF5F05C0D23019F0D33019F4C1508C
S1130C401F5F0EC0D43011F4C1500AC0D53011F466
S1130C50C15005C0D63019F0D73011F4CF5F115010
S1130C60402F612F8C2F0FDDA12CB12CDFEF812CB5
S1130C70712C8AE7682E94E4592E912CF501C190C9
S1130C80D190E190F1905F01282D372D462D552DFF
S1130C90C701B601BFD487FF05C0D92D8C2C7D2C8C
S1130CA06E2C5F2C9394F8E09F12E8CFBCCFDF91B9
S1130CB0CF911F910F91FF90EF90DF90CF90BF9055
S1130CC0AF909F908F907F906F905F9008958091E8
S1130CD02B02813009F4C4CC0895AF92BF92CF9215
S1130CE0DF92EF92FF920F931F93CF93DF932091A4
S1130CF02B02213009F05BC0142FC62FF92E082FC8
S1130D00E22EE61AD62ED194DD0C692F6C0FBBDCD3
S1130D106F2D6C1B412F802FB6DC412F6F2D802F40
S1130D208C0FB1DC412F6F2D802F8C1BACDCD0E0FD
S1130D30DC170CF03CC0E7FC04C0C150D394D3943E
S1130D40ED0CDF5F8D2F880F8F5FE80EA02EAD0EA8
S1130D50412FCF2CCC0E6C2D8A2D95DCB02EBD1AD4
S1130D60412F6C2D8B2D8FDC412FCF2CCC1A6C2D69
S1130D708A2D89DC412F6C2D8B2D85DCCF2CCD0E5B
S1130D80412F6C2DB02EBC0E8B2D7DDC412F6C2D94
S1130D90C02ECC1A8C2D77DCAF2CAD1A412F6A2DC6
S1130DA08B2D71DC412F6A2D8C2D6DDCC1CFDF9131
S1130DB0CF911F910F91FF90EF90DF90CF90BF9054
S1130DC0AF9008950F9320912B02213029F4042F22
S1130DD0272F462F692F16DD0F9108956F927F926A
S1130DE08F929F92AF92BF92CF92DF92EF92FF9237
S1130DF00F931F93CF93DF93EC01162FF42ED22E73
S1130E0062E0610F24DDFE0101900020E9F73197D3
S1130E10EC1BFD0BFF0CFF0C2EEFE22EEF0C4E2F04
S1130E20440F4E0F440F4E5F03E02AE06E2D812FD6
S1130E30E9DCDD2009F44AC0FE0101900020E9F755
S1130E403197EC1BFD0BCE2FCC0FEC0FEE0FEE5FAA
S1130E50C12CD12CCE2FD0E028E0F20E8AE1682EEE
S1130E6093E0892E912CCC16DD0684F50E2D712E7F
S1130E707C0C679CC00111249C01245D3D4F5901E9
S1130E80802F86958695F501E80FF11D808190E00D
S1130E90402F4370242F220FB40102C0660F771F26
S1130EA02A95E2F78623972302C0959587954A955C
S1130EB0E2F741E0811140E0602F872DE4DB0F5F12
S1130EC0F012DECF7FEFC71AD70ACDCFDF91CF91D3
S1130ED01F910F91FF90EF90DF90CF90BF90AF9054
S1130EE09F908F907F906F9008951F920F920FB6EE
S1130EF00F9211240BB60F922F933F934F935F934E
S1130F006F937F938F939F93AF93BF93EF93FF93CD
S1130F10F8948BD07894FF91EF91BF91AF919F910A
S1130F208F917F916F915F914F913F912F910F908E
S1130F300BBE0F900FBE0F901F901895362F242FC5
S1130F40492F682F832F972F49CF481720F1FB0192
S1130F5001900020E9F73197E61BF70B242F30E0CE
S1130F6046E04E9FB0014F9F700D1124680F711D14
S1130F706217730780F0452F50E024E0929FC00170
S1130F801124481759073CF09C01285F3F4F81E02A
S1130F90241735070CF480E008958EBD0DB407FEC8
S1130FA0FDCF089583E181B980EB84B980E58CBDE0
S1130FB081E08DBD12B881EFF0DF87E6EEDF80ECD3
S1130FC0ECDF80E4EADF80E5E8DF8BE2E6DF8BEE4E
S1130FD0E4DF81E8E2DF89E6E0DF89E8DEDF8FEA4B
S1130FE0DCDF84EADACFCF93C82F12B88F70D5DF55
S1130FF08C2F82958F708061CF91CFCF12B88F7173
S11310008066CBCFCF93DF9380E0EDDF80E0F6DF27
S113101082E082B9D8ECC0E280E0BFDFC150E1F7E2
S1131020D150C9F7DF91CF910895BF92CF92DF924B
S1131030EF92FF920F931F93CF93DF9380E0D3DF60
S113104080E0DCDF82E082B906E514E18CE2E82E80
S113105082E0F82EC1E092E0B92EF801808181305F
S113106071F46701D0EAF601808197DFD150FAE18B
S1131070CF0ED11CD111F7CFF801108204C012B8E1
S11310808C2FBCDFB2B8CF5F0F5F1F4FFFEFEF1A9B
S1131090FF0ACB3111F7DF91CF911F910F91FF9090
S11310A0EF90DF90CF90BF900895CF93DF938CE0C3
S11310B04CDA80E079DA70DA8DE047DA86DAC2E772
S11310C0D4E188838CDA8983DF91CF9165CA109249
S11310D0191386E080933413ECE1F3E184E491E0A6
S11310E09183808384E89AE0938382838EE491E001
S11310F0958384838AE19AE09783868389E591E0E6
S11311009187808780E79AE09387828782E691E0DF
S11311109587848784EB9AE09787868782E791E0B6
S1131120918B808B87E19AE0938B828B88E791E0A7
S1131130958B848B84E99AE0978B868B0895EF9244
S1131140FF920F931F93CF937C01C0E080913413DF
S1131150C817B8F484E0C89F80011124045E1C4EB3
S1131160D8016D917C91C7013DD2882341F0D8010B
S11311701296ED91FC911397099580931913CF5F03
S1131180E5CFCF911F910F91FF90EF900895C1E0AB
S113119086E8E82E81E0F82ED2E097E1992E20E946
S11311A0C22E21E0D22E30EAA32E31E0B32E4CE33E
S11311B0842E05E112E0C0937514F0927112E0924E
S11311C07012D093721290927312D0922802C0922D
S11311D02702D0932902C0932A02B0926D12A092E2
S11311E06C1280926E1290926F12D0DB70DD60915F
S11311F0701270917112809172129091731240E08A
S11312009DDE6091270270912802809129029091BD
S11312102A0240E093DE60916C1270916D1280910D
S11312206E1290916F1240E089DE809175148111E5
S1131230FCCF809176149091771481DF109377140A
S113124000937614B8CF682F70E080E090E07AD2F3
S113125020E030E04AE754E4E1D120E836E948E907
S113126056E422D343D260957095709375126093BF
S113127074128091741290917512809394008091ED
S113128074129091751290939500089581E0809363
S113129071000895909336138093351308951F9227
S11312A00F920FB60F9211240BB60F922F933F9308
S11312B04F935F936F937F938F939F93AF93BF935A
S11312C0EF93FF93F8948091741290917512809328
S11312D0940080917412909175129093950080916E
S11312E0351390913613892B29F0E0913513F09141
S11312F0361309957894FF91EF91BF91AF919F9127
S11313008F917F916F915F914F913F912F910F90AA
S11313100BBE0F900FBE0F901F9018951F920F9247
S11313200FB60F9211240BB60F922F933F934F9346
S11313305F936F937F938F939F93AF93BF93EF9339
S1131340FF93F89486EF809385008BE38093840069
S1131350ACDE80917514882309F446C04091721460
S11313605091731460917012709171128091721285
S113137090917312EADD882341F084E491E0909324
S113138077148093761410927514409172145091CE
S11313907314609127027091280280912902909120
S11313A02A02D3DD882341F082E691E090937714FA
S11313B080937614109275144091721450917314A2
S11313C060916C1270916D1280916E1290916F12F7
S11313D0BCDD8823C1F089E591E090937714809374
S11313E07614109275140FC080911A1390911B13E8
S11313F0892B49F0E0911A13F0911B138091721418
S11314009091731409957894FF91EF91BF91AF91E6
S11314109F918F917F916F915F914F913F912F9108
S11314200F900BBE0F900FBE0F901F901895B4DA5B
S113143080E0089584E18093741480917414882367
S113144069F048DB84E192E0C6DA8091741481503B
S11314508093741488EE93E0BAD0EFCF08959091FE
S1131460791480917C14890F80937914823311F458
S11314708FEF03C0811103C081E080937C1427DCCB
S113148043E06091791480917A1490917B1425DC67
S113149043E064E174E180E090E094DC60E08BE0A0
S11314A09BE043DB43E064E174E184E190E08ADCA7
S11314B061E08FE19BE039DB43E064E174E188E2C1
S11314C090E080DC62E083E39BE02FDB43E064E1B7
S11314D074E18CE390E076DC63E087E49BE025CB69
S11314E055DAF5DB80E580937A1484E380937B14EA
S11314F081E080937C148093791486E9A4DE8FE2E2
S11315009AE0C8DEC3DEFFCF3CDA46DA89EA91E02E
S113151062DA85EC91E05FDA81EE91E05CDA88E8EA
S113152093E155D080E00895D6E4C8E2D093161331
S1131530C093701431DA8AEF91E04DDA85E092E0DD
S11315404ADA80911613C6DA83E192E044DA86E13E
S113155092E041DA80917014BDDA83E192E03BDAE3
S113156088EE93E034D0E2CFCF93DF93CDB7DEB7EC
S113157066970FB6F894DEBF0FBECDBF0DDA8E01AD
S1131580095E1F4FFE01319611920E171F07E1F7F6
S113159080E09091C00097FFFCCF9091C6009A30F4
S11315A069F4CE01019617DA84E192E014DAFE01BF
S11315B031961192E017F107E1F7EACFE1E0F0E0AC
S11315C0EC0FFD1FE80FF11D90838F5FE2CF0097B2
S11315D041F0E7E8F3E13197F1F700C0000001972B
S11315E0F6CF0895AC0120E0E22FF0E0DA01AE0F6F
S11315F0BF1F9C91E60FF71F992339F030813323E5
S113160021F0931305C02F5FEFCF81E020812913D0
S113161080E00895D4D008F481E008950CD00AC184
S113162002D140F0F9D030F021F45F3F19F0EBC063
S1131630511134C1EEC00FD198F39923C9F3552346
S1131640B1F3951B550BBB27AA27621773078407B1
S113165038F09F5F5F4F220F331F441FAA1FA9F367
S113166033D00E2E3AF0E0E830D091505040E69559
S1131670001CCAF729D0FE2F27D0660F771F881FBA
S1131680BB1F261737074807AB07B0E809F0BB0BA9
S1131690802DBF01FF2793585F4F2AF09E3F5105CD
S11316A068F0B1C0FBC05F3FECF3983EDCF3869575
S11316B077956795B795F7959F5FC9F7880F911D43
S11316C09695879597F90895E1E0660F771F881F2F
S11316D0BB1F621773078407BA0720F0621B730BE2
S11316E0840BBA0BEE1F88F7E0950895BCD088F000
S11316F09F5790F0B92F9927B751A0F0D1F0660FFA
S1131700771F881F991F1AF0BA95C9F712C0B13014
S113171081F0C3D0B1E00895C0C0672F782F882727
S1131720B85F39F0B93FCCF3869577956795B39553
S1131730D9F73EF490958095709561957F4F8F4FC2
S11317409F4F0895E89409C097FB3EF490958095C7
S1131750709561957F4F8F4F9F4F9923A9F0F92F73
S113176096E9BB279395F695879577956795B795F1
S1131770F111F8CFFAF4BB0F11F460FF1BC06F5FD7
S11317807F4F8F4F9F4F16C0882311F096E911C0E9
S1131790772321F09EE8872F762F05C0662371F00A
S11317A096E8862F70E060E02AF09A95660F771F1E
S11317B0881FDAF7880F9695879597F90895990FFA
S11317C00008550FAA0BE0E8FEEF16161706E80707
S11317D0F907C0F012161306E407F50798F0621B28
S11317E0730B840B950B39F40A2661F0232B242BFD
S11317F0252B21F408950A2609F4A140A6958FEF1C
S1131800811D811D089597F99F6780E870E060E06D
S113181008959FEF80EC089500240A941616170685
S113182018060906089500240A94121613061406CD
S113183005060895092E0394000C11F4882352F030
S1131840BB0F40F4BF2B11F460FF04C06F5F7F4FE8
S11318508F4F9F4F089557FD9058440F551F59F0CF
S11318605F3F71F04795880F97FB991F61F09F3F89
S113187079F087950895121613061406551FF2CFB2
S11318804695F1DF08C0161617061806991FF1CF02
S113189086957105610508940895E894BB27662729
S11318A07727CB0197F908950BD0C4CFB5DF28F083
S11318B0BADF18F0952309F0A6CFABCF1124EECFF1
S11318C0CADFA0F3959FD1F3950F50E0551F629F97
S11318D0F001729FBB27F00DB11D639FAA27F00D85
S11318E0B11DAA1F649F6627B00DA11D661F829FAC
S11318F02227B00DA11D621F739FB00DA11D621F91
S1131900839FA00D611D221F749F3327A00D611DAD
S1131910231F849F600D211D822F762F6A2F11248F
S11319209F5750408AF0E1F088234AF0EE0FFF1FE2
S1131930BB1F661F771F881F91505040A9F79E3F19
S1131940510570F060CFAACF5F3FECF3983EDCF313
S1131950869577956795B795F795E7959F5FC1F756
S1131960FE2B880F911D9695879597F908950F93EF
S11319701F93CF93DF93CDB7DEB72E970FB6F894AE
S1131980DEBF0FBECDBF0D891E8986E08C831A830E
S113199009838FEF9FE79E838D83AE01475E5F4F80
S11319A06F89788DCE01019610D0EF81F885E00F14
S11319B0F11F10822E960FB6F894DEBF0FBECDBF76
S11319C0DF91CF911F910F9108952F923F924F92E3
S11319D05F926F927F928F929F92AF92BF92CF92BB
S11319E0DF92EF92FF920F931F93CF93DF93CDB7C4
S11319F0DEB72B970FB6F894DEBF0FBECDBF6C01D8
S1131A007B018A01FC0117821682838181FFBFC199
S1131A10CE0101963C01F6019381F70193FD859176
S1131A2093FF81917F01882309F4ADC1853239F494
S1131A3093FD859193FF81917F01853221F4B60155
S1131A4090E0D6D1E8CF912C212C312CFFE1F31575
S1131A50D8F08B3279F038F4803279F08332A1F403
S1131A60232D20611DC08D3261F0803369F4232D54
S1131A70216016C0832D8260382EE32DE4603E2E53
S1131A802AC0F32DF8601DC037FC2DC020ED280FAF
S1131A902A3040F08E32B9F436FC75C1232D20640F
S1131AA0322E19C036FE06C08AE0989E200D1124FD
S1131AB0922E11C0EAE02E9E200D1124222EF32D29
S1131AC0F0623F2E08C08C3621F4832D8068382EB6
S1131AD002C0883641F4F70193FD859193FF81910B
S1131AE07F018111B3CF982F9F7D9554933028F4B3
S1131AF00C5F1F4F9FE399830DC0833631F083370A
S1131B0071F0833509F055C020C0F80180818983C4
S1131B100E5F1F4F88248394912C530112C0280117
S1131B20F2E04F0E511CF801A080B18036FE03C0D4
S1131B30692D70E002C06FEF7FEFC5014ED14C01FB
S1131B408201F32DFF773F2E15C0280122E0420EBB
S1131B50511CF801A080B18036FE03C0692D70E0ED
S1131B6002C06FEF7FEFC5012DD14C01F32DF0685A
S1131B703F2E820133FC19C0822D90E0881699060D
S1131B80A0F4B60180E290E033D12A94F5CFF501B8
S1131B9037FC859137FE81915F01B60190E028D131
S1131BA021102A9421E0821A91088114910479F772
S1131BB0E1C0843611F0893639F5F80137FE07C0E3
S1131BC060817181828193810C5F1F4F08C06081A5
S1131BD07181072E000C880B990B0E5F1F4FF32D9C
S1131BE0FF763F2E97FF09C090958095709561957B
S1131BF07F4F8F4F9F4FF0683F2E2AE030E0A301C4
S1131C0033D1882E861844C0853731F4232D2F7E96
S1131C10B22E2AE030E025C0932D997FB92E8F365D
S1131C20C1F018F4883579F0AEC0803719F08837E0
S1131C3021F0A9C0E92FE061BE2EB4FE0DC0FB2D3A
S1131C40F460BF2E09C034FE0AC0292F2660B22ECC
S1131C5006C028E030E005C020E130E002C020E109
S1131C6032E0F801B7FE07C06081718182819381FF
S1131C700C5F1F4F06C06081718180E090E00E5FB1
S1131C801F4FA301F1D0882E8618FB2DFF773F2E1E
S1131C9036FE0DC0232D2E7FA22E891458F434FE57
S1131CA00BC032FC09C0832D8E7EA82E05C0B82C33
S1131CB0A32C03C0B82C01C0B92CA4FE0FC0FE0194
S1131CC0E80DF11D8081803321F49A2D997EA92E8F
S1131CD009C0A2FE06C0B394B39404C08A2D8678CA
S1131CE009F0B394A3FC10C0A0FE06C0B21480F4A3
S1131CF0280C922C9B180DC0B21458F4B60180E243
S1131D0090E076D0B394F8CFB21418F42B1802C034
S1131D10982C212CA4FE0FC0B60180E390E068D07B
S1131D20A2FE16C0A1FC03C088E790E002C088E5CB
S1131D3090E0B6010CC08A2D867851F0A1FE02C055
S1131D408BE201C080E2A7FC8DE2B60190E050D0A6
S1131D50891430F4B60180E390E04AD09A94F8CF25
S1131D608A94F301E80DF11D8081B60190E040D022
S1131D708110F6CF222009F44ECEB60180E290E025
S1131D8037D02A94F7CFF6018681978102C08FEF6E
S1131D909FEF2B960FB6F894DEBF0FBECDBFDF9139
S1131DA0CF911F910F91FF90EF90DF90CF90BF9054
S1131DB0AF909F908F907F906F905F904F903F90E7
S1131DC02F900895FC010590615070400110D8F7E0
S1131DD0809590958E0F9F1F0895FC01615070406F
S1131DE001900110D8F7809590958E0F9F1F08954C
S1131DF00F931F93CF93DF93FB01238121FD03C036
S1131E008FEF9FEF2CC022FF16C04681578124819B
S1131E1035814217530744F4A081B1819D012F5F9E
S1131E203F4F318320838C93268137812F5F3F4F2F
S1131E303783268314C08B01EC01FB010084F185F8
S1131E40E02D0995892BE1F6D80116968D919C9188
S1131E501797019617969C938E931697CE01DF9150
S1131E60CF911F910F910895FA01AA27283051F1BB
S1131E70203181F1E8946F936E7F6E5F7F4F8F4FB7
S1131E809F4FAF4FB1E03ED0B4E03CD0670F781F16
S1131E90891F9A1FA11D680F791F8A1F911DA11DFB
S1131EA06A0F711D811D911DA11D20D009F4689434
S1131EB03F912AE0269F11243019305D3193DEF6DC
S1131EC0CF010895462F4770405D4193B3E00FD092
S1131ED0C9F7F6CF462F4F70405D4A3318F0495D7D
S1131EE031FD4052419302D0A9F7EACFB4E0A69560
S1131EF09795879577956795BA95C9F70097610582
S1131F00710508959B01AC010A2E069457954795D7
S1131F1037952795BA95C9F7620F731F841F951FCC
S10B1F20A01D0895F894FFCF01
S1131F281F00000100020002000200030003000475
S1131F380005000600070008000A000B000D001049
S1131F4800130017001B00200026002D0036004057
S1131F58004C005B006C0080009800B500D700FFBF
S1131F6800256900746578745F7465737400636F21
S1131F78756E745F646F776E006766785F746573F7
S1131F88740073657269616C5F6C697374656E65FE
S1131F987200636C65617200726F626F745F636F65
S1131FA86E74726F6C00546578742D546573740084
S1131FB853657269616C2D4C697374656E65720042
S1131FC84746582D54657374004142434445464777
S1131FD848494A4B4C4D4E4F5051525354555657FD
S1131FE858595A0A006162636465666768696A6B6E
S1131FF86C6D6E6F707172737475767778797A0A0E
S113200800303132333435363738392E2C3B3A5F89
S11320182D2B2A2F5C25243F0A00416B6B757374A2
S1132028616E640A002020537465756572756E6765
S11320383A2000250A002020416E74726965623ACC
S10720482020200030
S9030000FC
